:020000040800F2
:10000000002800208D0500082105000823050008B0
:100010002505000827050008290500080000000044
:100020000000000000000000000000002B05000898
:100030002D050008000000002F050008310500080C
:10004000D5050008D5050008D5050008D505000828
:10005000D5050008D5050008D5050008D505000818
:10006000D5050008D5050008D5050008D505000808
:10007000D5050008D5050008D5050008D5050008F8
:10008000D5050008D5050008D5050008D5050008E8
:1000900035050008D5050008D5050008410500080C
:1000A000D5050008D5050008D5050008D5050008C8
:1000B000D5050008D505000800000000D50500089A
:1000C000D50500080000000000000000D50500086C
:1000D00000000000D5050008D5050008000000005C
:1000E000D5050008D5050008D5050008000000006A
:1000F0000000000000000000000000000000000000
:0C01000000000000000000005FF808F1A3
:10010C0010B5054C237833B9044B13B10448AFF345
:10011C0000800123237010BDE001002000000000CE
:10012C006440000808B5034B1BB103490348AFF307
:10013C00008008BD00000000E401002064400008BD
:10014C00034613F8012B002AFBD1181A013870470B
:10015C0020280DD10749084B1A680B78D8B2013307
:10016C00DBB20B70516A054B43F82010002353622D
:10017C00704700BFFC01002090030020000200200B
:10018C0010B50323002040F21E3408496FF4C86CEC
:10019C0051F8232040006244A24203F1010398BFAE
:1001AC0040F00100222BF1D110BD00BF0002002055
:1001BC00F0B5172097B000F0B3FAFFF7E1FF002479
:1001CC0005461022214603A8029403F0B5FA2A46EC
:1001DC00314902A803F090FA02A8FFF7B1FF81B2EF
:1001EC0002A803F0EDF827462C4E1A22002108A88D
:1001FC00079703F0A1FA56F82430B3F5C86F04D969
:10020C0056F82430B3F5166F41D356F82430B3F5B5
:10021C00C87F3ED956F82410B1F5966F34BF002133
:10022C000121490056F824302246009107A81C49A8
:10023C0003F062FA07A8FFF783FF81B207A803F067
:10024C00BFF80A2000F00AFA46F824700134222C78
:10025C00CBD1144B07AA03F1380614461868596819
:10026C00083303C4B3422246F7D11B7807A8237086
:10027C00FFF766FF81B207A803F0A2F800220A4B31
:10028C0017201A7000F03EFA284617B0F0BD012175
:10029C00C8E70221C6E700BF7C400008000200202E
:1002AC008640000897400008FC01002030B595B04E
:1002BC00142200210CA803F03FFA1422102500216F
:1002CC000DEB020003F038FA2A46002101A803F0D6
:1002DC0033FA02244FF480330122CDE91143CDE9E6
:1002EC000A234FF4E0130AA80E92139301F0C6F9F7
:1002FC0008B172B6FEE70F23CDE905344FF48063E5
:10030C000790CDE90830214605A801F079FB08B12A
:10031C0072B6FEE7049001A8019501F00DFC08B13E
:10032C0072B6FEE715B030BD2DE9F0418AB000F091
:10033C0071F9FFF7BBFF1022002106A803F0FCF9AE
:10034C004E4B4FF400519A694D4842F010029A619D
:10035C009A69002502F010020192019A9A694FF4F1
:10036C00005742F020029A619A694FF0010802F09E
:10037C0020020292029A9A69424C42F004029A615B
:10038C009B69002203F004030393039B00F0C0FA63
:10039C0002233B4806A9CDE90853CDE9067800F0C5
:1003AC00E5F92022384B394806A9CDE906230895F2
:1003BC0000F0DCF92A462946172000F073F91720C3
:1003CC0000F0A0F92946102206A803F0B5F947233E
:1003DC004FF08041C4E900134FF6FF73C4E90335B5
:1003EC0080232046CDE90455A560A36101F078FC7B
:1003FC0008B172B6FEE74FF48053204606A9069367
:10040C0001F0A4FC08B172B6FEE7CDE9040004A922
:10041C00204601F035FD08B172B6FEE702F082FF0E
:10042C00204601F003FC39464246154800F070FAAC
:10043C00174D184F124C2B78212B02D9FFF7B8FE11
:10044C0006463B68B34203D0134B1B68B34206D13C
:10045C0000224FF40051204600F05AFAEBE70F4B04
:10046C001B68B34207D00E4B1B68B34203D00D4B35
:10047C001B68B342DFD10122EBE700BF0010024042
:10048C0000100140900300200000211000080140E2
:10049C00FC01002010000020080000200C000020AF
:1004AC00040000200000002072B6FEE70E4B82B064
:1004BC009A6942F001029A619A6902F00102009273
:1004CC00009ADA6942F08052DA61DB69074A03F07C
:1004DC0080530193019B536823F0E06343F0007356
:1004EC00536002B0704700BF001002400000014092
:1004FC00036882B0B3F1804F0AD103F50433DA6993
:10050C0042F00102DA61DB6903F001030193019B04
:10051C0002B07047FEE7FEE7FEE7FEE7FEE7704736
:10052C007047704700F088B8014800F093BA00BFDC
:10053C00C8120020202000F0F1B900000B4A03463D
:10054C00116810B509B90A491160106809490A4CBB
:10055C000344091B8B4206D903F0F6F80C23036005
:10056C004FF0FF3010BD1360FCE700BFD803002034
:10057C00E81600200028002000040000704700004E
:10058C00FFF7FCFF0B480C490C4A002302E0D4583F
:10059C00C4500433C4188C42F9D3094A094C0023C3
:1005AC0001E013600432A242FBD303F0D3F8FFF74F
:1005BC00BBFE704700000020E001002078410008DD
:1005CC00E0010020E8160020FEE7000038B50E4BD5
:1005DC0005461A784FF47A73B3FBF2F30B4A1068A2
:1005EC00B0FBF3F000F0AEF8044658B90F2D09D863
:1005FC00024629464FF0FF3000F054F82046044BD9
:10060C001D6038BD0120FCE71800002014000020FC
:10061C001C000020074A08B51368032043F01003A0
:10062C00136000F02DF80F20FFF7D0FFFFF73EFF0F
:10063C00002008BD00200240034A044B11681B78BF
:10064C000B441360704700BFDC030020180000202F
:10065C00014B1868704700BFDC03002038B5044616
:10066C00FFF7F6FF0546631C1EBF044B1B78E4180E
:10067C00FFF7EEFF431BA342FAD338BD180000204E
:10068C0007490302CA6803F4E06322F4E06212042F
:10069C00120C134343F0BF6343F40033CB60704739
:1006AC0000ED00E0154B30B5DC68C4F30224C4F156
:1006BC000703251D042B28BF0423062D4FF0FF35FF
:1006CC0094BF0024033C05FA03F321EA0303A5407D
:1006DC0022EA0502A340002843EA0203ACBF00F162
:1006EC006040074A4FEA0313DBB2ABBF00F5614031
:1006FC0000F00F0080F80033135430BD00ED00E023
:10070C0014ED00E0002807DB01234109034A00F047
:10071C001F00834042F82130704700BF00E100E029
:10072C0000280CDB01220649430900F01F0082401F
:10073C00203341F82320BFF34F8FBFF36F8F7047E7
:10074C0000E100E00138B0F1807F0BD24FF0E023E4
:10075C00F021054A586182F8231000200722986185
:10076C001A6170470120704700ED00E02DE9F74F4A
:10077C0000221646DFF87CC15F4BDFF880E1DFF822
:10078C0080810D6835FA06F402D103B0BDE8F08F14
:10079C000127B74005EA070437EA050575D14D680E
:1007AC00032D06D8013D022D7ED8DFE805F08F948D
:1007BC009A00122D00F0928069D8112D00F08880DB
:1007CC00FF2C98BF81464FF00F0B88BF00F1040936
:1007DC004FEA8605D9F8007088BF203D0BFA05FA60
:1007EC0027EA0A0702FA05F52F43C9F80070D1F879
:1007FC00049019F0805F48D0DCF8185026F00307FD
:10080C0045F00105CCF81850DCF8185007F180477A
:10081C0005F00105019507F5803706F0030A019DE7
:10082C004FEA8A0ABD680BFA0AFB25EA0B0B354D19
:10083C00A8425AD005F58065A84258D005F58065C8
:10084C00A84214BF0325022505FA0AF545EA0B0553
:10085C00BD609D6819F4801F14BF2543A5439D609E
:10086C00DD6819F4001F14BF2543A543DD605D68E6
:10087C0019F4003F14BF2543A5435D601D6819F4AE
:10088C00803F14BF2543A5431D60013679E7DFF88F
:10089C0078904D4508D011D8A9F580194D4503D055
:1008AC00754501D045458BD18A68E2B1012A08BF54
:1008BC0007614FF0080218BF476181E7DFF84C90E1
:1008CC004D45F1D009F580394D45ECE7CA6877E71D
:1008DC00CA68043274E7CA68083271E7CA680C3215
:1008EC006EE700226CE704226AE70025ACE70125DD
:1008FC00AAE700BF001002400004014000002110D4
:10090C0000001110000801400000221000003110FE
:10091C000AB1016170470904FBE70000044A08B5FD
:10092C005169014202D05061FFF712FC08BD00BFB3
:10093C0000040140F8B50446E0B190F8913203F0A0
:10094C00FF021BB980F8902202F0CEFD032384F83D
:10095C00913200232546637155F8040B01F0CAFA55
:10096C0095E80E00206801F0B5FA014628B1022383
:10097C0084F8913201252846F8BD206801F0C4FAAC
:10098C000028F4D102460127267904F11003C1B2E4
:10099C008E4203F1280318D800210A4604F5A873E7
:1009AC00C8B2864203F128031BD895E80E002068D4
:1009BC0001F0ACFA05460028D9D1012360732068F8
:1009CC0084F8913201F058FDD5E743E9062203F88B
:1009DC00277C03F8281C03F8252C43F8102C013035
:1009EC00D5E743E9062203F8272C03F8280C03F873
:1009FC00252C43F8102C0131D2E738B590F8903201
:100A0C000446012B10D0012580F89052006801F0AB
:100A1C0068FA2946204602F06EFE206801F02AFD95
:100A2C00002084F8900238BD0220FCE710B590F845
:100A3C0090220446012A0AD00122417380F89022A8
:100A4C00006801F011FD002084F8900210BD022016
:100A5C00FCE700002DE9F04F044685B0006801F07A
:100A6C000DFD10F4004500F04F842825C64E20687B
:100A7C00B0F844301F0402D405B0BDE8F08FB0F8D4
:100A8C00443013F00F0799B240F0C08011F0100100
:100A9C0026D103889BB2334043F400430380B0F863
:100AAC005030227C9BB203EBC20300EB4303B3F840
:100ABC000434626AC3F309031A44E3622046626297
:100ACC0002F041FD637B002BD1D0A26A2168002A81
:100ADC00CDD1637B43F08003A1F84C306273C6E741
:100AEC000788BBB217F4006721D0B0F8503094F8E7
:100AFC0050219BB203EBC20300EB4303B3F80C345D
:100B0C00B4F85621C3F30903C4F86C3104F526710B
:100B1C0001F0FFFE22682046138823F070031B05AA
:100B2C001B0D43F08003138002F0FEFC9FE71904B9
:100B3C009DD5038823F070031B051B0D43F0800328
:100B4C000380B0F8503094F850219BB203EBC203F1
:100B5C0000EB4303B3F80C34C3F30903C4F86C3152
:100B6C008BB1D4F8641171B1B4F8562101F0D1FEF7
:100B7C00D4F86431D4F86C21394613442046C4F8B7
:100B8C00643102F0D7FC21680A8893B212053FF554
:100B9C006EAF03F44053B3F5405F3FF468AFB1F868
:100BAC00502001F20C4092B2835AC3F309038352D2
:100BBC00D4F860313E2B1DD95F09DB06835A08BF80
:100BCC0007F1FF379BB243EA87236FEA43436FEA8F
:100BDC0053439BB283520B8823F4804323F070035E
:100BEC001B041B0C83F4405343F4004343F0800379
:100BFC000B803CE70BB9835AE7E75F08DB07835AA6
:100C0C0048BF01379BB243EA8723E2E730F827302D
:100C1C0019041FFA83F840F1F68030F8273005FBF1
:100C2C00074123F070031B051B0D43F0800320F8D4
:100C3C00273091F85C3100F5806EBBB9B0F85030BC
:100C4C0091F850219BB2063303EBC2033EF813908C
:100C5C00C9F30909B9F1000F00F0BA804B46B1F89D
:100C6C005621D1F8641101F054FEB1E091F85331E2
:100C7C0091F85021022B40F08980B0F850904FEA47
:100C8C00C20B1FFA89F918F4804AD1F86831D9449B
:100C9C0008F0400C3CD009F102093EF81990C9F358
:100CAC000909994513D90023C1F8683130F822306D
:100CBC0023F4804323F070031B041B0C83F40053B8
:100CCC0043F4004343F0800320F8223005E0A3EB0B
:100CDC000903C1F86831002BE8D0BCF1000F0DD02E
:100CEC0030F8223023F4E04323F070031B041B0C78
:100CFC0043F4004343F0C00320F82230B9F1000F55
:100D0C0066D0282101FB07414B46B1F85821A8E7D2
:100D1C0009F106093EF81990C9F30909994512D948
:100D2C00C1F868A130F8223023F4804323F070031B
:100D3C001B041B0C83F4005343F4004343F0800367
:100D4C0020F8223005E0A3EB0903C1F86831002B31
:100D5C00E8D0BCF1000F0DD130F8223023F4E04381
:100D6C0023F070031B041B0C43F4004343F0C0033B
:100D7C0020F82230B9F1000F2AD0282101FB0741BD
:100D8C004B46B1F85A216CE70F8FFFFF30F8223039
:100D9C0023F4E04323F070031B041B0C43F40043C7
:100DAC0043F0C00320F8223091F8503130F8232062
:100DBC00DB0012F4804FB0F8502092B254D00232C3
:100DCC0013443EF81390C9F30909B9F1000F9BD1F4
:100DDC0005FB07F16318D3F86C214A44C3F86C2166
:100DEC00D3F864214A44C3F86421D3F868211AB1BA
:100DFC00D3F86031994541D205FB0743204693F85F
:100E0C00501102F097FB18F0800F20683FF42FAEC2
:100E1C0030F8273005FB07FC9BB2334043F400430A
:100E2C0020F8273004EB0C03DA7C012A56D1002180
:100E3C0007FB0552A1501A7F92B318F040085A7C58
:100E4C0036D012BBB0F850201B7C92B21B0100F2C2
:100E5C00044010441A5AC2F309021A521A5A92B296
:100E6C0042F400421A521BE0063213443EF813902F
:100E7C00C9F30909B9F1000FAAD081E701F5A871EE
:100E8C002068214401F010FBBDE7012A08D1B0F81D
:100E9C0050201B7C92B200F204401B0110441952EA
:100EAC00282303FB0743197C204602F04CFBDEE5AC
:100EBC003AB9B0F850201B7C92B21B0100F20C40E6
:100ECC00C7E7012AECD1B0F850201B7C92B200F29B
:100EDC000C401B01104423F80080E1E7197C18F446
:100EEC00807E9A6A4FEAC10A00F580691BD1B0F87E
:100EFC005070BFB25744023739F81770C7F309075F
:100F0C00974202D3C3F828E0CEE7D21B9A625A6A02
:100F1C000CF110013A445A62DA6A21443A44DA621A
:100F2C0001F0C2FAA3E5B0F850C018F0400E1FFA59
:100F3C008CFCD44408F4804800F0F4800CF1020CD2
:100F4C0039F81CC01FFA88F8CCF3090C94452CBF57
:100F5C000022A2EB0C029A62002A5BD1282303FB2D
:100F6C0007435B7C002B41D1B0F8502000F2044CBD
:100F7C0092B20B0194443CF80320C2F309022CF802
:100F8C0003203CF803206FEA42426FEA524292B2CD
:100F9C002CF80320B0F8502000F20C4092B2104410
:100FAC00C25AC2F30902C252C25A6FEA42426FEAF3
:100FBC00524292B2C252204602F0C5FAB8F1000F6A
:100FCC0000F0F480282303FB07432268197C32F8D5
:100FDC00213023F4E04323F070031B041B0C43F477
:100FEC00404343F0800322F82130DFE0012BE2D1B3
:100FFC00B0F850E000F2044C1FFA8EFEF4440B01E2
:10100C002CF80320B0F850C000F20C401FFA8CFCF6
:10101C006044CFE7B8F1000F0DD030F8212022F456
:10102C00E04222F070021204120C42F4404242F0F0
:10103C00800220F821204FF0280808FB074898F878
:10104C003420012A40F0B280D8F8242002EB0C0E98
:10105C00C8F824E0DA6A6244DA62D8F83030D8F89A
:10106C002020934235D39B1AC8F83030282303FB39
:10107C00074393F811C093B2BCF1000F45D1B0F8FF
:10108C00508000F2044C1FFA88F8C44409013CF863
:10109C0001803E2AC8F309082CF8018025D94FEAB3
:1010AC005218D2063CF8012008BF08F1FF3892B262
:1010BC0042EA88226FEA42426FEA524292B22CF81C
:1010CC000120282202FB0742128B714601F0DCF949
:1010DC006CE01BB9624688F83430C7E7002288F808
:1010EC003420C8F830201A46C0E712B93CF8012069
:1010FC00E0E74FEA5208D2073CF8012048BF08F15C
:10110C00010892B242EA8822D8E7BCF1010FD8D18B
:10111C00B0F850C000F204421FFA8CFC6244090182
:10112C005352CEE70CF1060C39F81CC01FFA88F8A4
:10113C00CCF3090C94458CBF7246A2EB0C029A625C
:10114C00002A5DD1282303FB07435B7C002B43D192
:10115C00B0F8502000F2044C92B20B0194443CF8CD
:10116C000320C2F309022CF803203CF803206FEA99
:10117C0042426FEA524292B22CF80320B0F850204F
:10118C0000F20C4092B21044C25AC2F30902C2528D
:10119C00C25A6FEA42426FEA524292B2C25220469F
:1011AC0002F0D1F9B8F1000F3FF40CAF282303FB88
:1011BC0007432268197C32F8213023F4E04323F0F2
:1011CC0040031B041B0C83F0300343F4004343F037
:1011DC00800322F821304AE4012BE0D1B0F850E032
:1011EC0000F2044C1FFA8EFEF4440B012CF8032081
:1011FC00B0F850C000F20C401FFA8CFC6044CDE7F4
:10120C00B8F1000F0DD130F8212022F4E04222F089
:10121C0070021204120C42F4404242F0800220F898
:10122C0021204FF0280808FB074898F83420012AA1
:10123C00BCD1D8F8242002EB0C0EC8F824E0DA6AF2
:10124C006244DA62D8F83030D8F82020934232D396
:10125C009B1AC8F83030282303FB074393F811C0BE
:10126C0093B2BCF1000F42D1B0F8508000F20C4C9C
:10127C001FFA88F8C44409013CF801803E2AC8F3DF
:10128C0009082CF8018022D94FEA5218D2063CF8F2
:10129C00012008BF08F1FF3892B242EA88226FEAB7
:1012AC0042426FEA524292B22CF80120282202FBF1
:1012BC000742528B09E71BB9624688F83430CAE7FB
:1012CC000022C8F8302088F834201A46C3E712B937
:1012DC003CF80120E3E74FEA5208D2073CF8012022
:1012EC0048BF08F1010892B242EA8822DBE7BCF160
:1012FC00010FDBD1B0F8502000F20C4C92B29444A8
:10130C000A012CF80230D1E7460512D52268204696
:10131C00B2F8443023F480631B041B0CA2F8443055
:10132C0002F01DF92946204605B0BDE8F04FFFF745
:10133C007DBB41040AD52268B2F8443023F48043C3
:10134C001B041B0CA2F84430FFF796BB820405D596
:10135C002268B2F8443023F40053F1E7C30419D5E2
:10136C0022682046B2F8403023F004031B041B0C07
:10137C00A2F84030B2F8403023F008031B041B0CD9
:10138C00A2F8403002F00EF92268B2F8443023F48F
:10139C008053D5E7070548D56846236806461946A5
:1013AC001A4603F1200532F8047B954226F8027B9D
:1013BC00F9D1B3F8402092B242F00102A3F84020D8
:1013CC00B3F8402022F001021204120CA3F84020C2
:1013DC00B3F844205605FBD5B3F8442022F48062C0
:1013EC001204120CA3F8442030F8022B21F8042B21
:1013FC008D42F9D1B3F84020204692B242F0080257
:10140C00A3F84020B3F8442022F400621204120C1A
:10141C00A3F84420B3F8402092B242F00402A3F89F
:10142C00402002F0AFF8FFF727BB82050DD52268EC
:10143C002046B2F8443023F400731B041B0CA2F8B2
:10144C00443002F088F8FFF717BBC3057FF514ABE7
:10145C002268B2F8443023F4807371E770B5282405
:10146C00054601F00700444311F0800F14BF04F14E
:10147C00100104F5A87105EB040615BF0124002426
:10148C00747486F8514114BF49194919022BCB7059
:10149C0008BF0023087008BF0B710A6195F89032E1
:1014AC00012B09D00123286885F8903200F040FD0B
:1014BC00002085F8900270BD0220FCE7282301F083
:1014CC000702534311F0800F10B5044618BF03F107
:1014DC00100118440BBF03F5A8710123002309194F
:1014EC000ABF0919437480F851310A7094F890328C
:1014FC00012B09D00123206884F8903200F078FE8B
:10150C00002084F8900210BD0220FCE770B528245E
:10151C00002601F007014C43051985F8501104F51C
:10152C00A8710144C5E95923C5F86C6185F851616E
:10153C00006800F0B9FF304670BD282301F00701A8
:10154C0003FB0100D0F86C01704770B5282501F041
:10155C0007014D4344190026C4E9092301222174D3
:10156C0005F11001014484F834202363E6626274AF
:10157C00006800F099FF304670BD38B5037901F072
:10158C000705AB4204462AD311F0800F4FF0280315
:10159C001CD001226B4303F11001034401445A7423
:1015AC0001230D708B7094F890229A4219D0206808
:1015BC0084F8903200F0EFFE25B9206804F526710E
:1015CC0000F060FF002084F8900238BD00224B43ED
:1015DC0003F5A8710344014483F85121E0E701208D
:1015EC00F3E70220F1E738B5027901F00F039A42D4
:1015FC00044626D3282301F00702534311F0800F31
:10160C0014BF03F1100103F5A87118444FF0000545
:10161C0015BF012300230919091914BF437480F85D
:10162C0051318D700A7094F89032012B0BD001233C
:10163C00206884F8903200F0CEFE284684F8905250
:10164C0038BD0120FCE70220FAE710B5282411F080
:10165C00800F1BBF01F0070104FB010004FB01001C
:10166C00103008BF00F5A87099B21AB90273C18086
:10167C00002010BD012283600273F9E72DE9F341CC
:10168C00054638B30368DB0710D42B689F075ED47C
:10169C002B68190700F195802B685A0700F1C1805F
:1016AC00EB69002B40F02C81002029E0904C636802
:1016BC0003F00C03042B07D0636803F00C03082B16
:1016CC000AD16368DE0307D523689C03DDD56B68FC
:1016DC00002BDAD1012013E06B68B3F5803F12D1F7
:1016EC00236843F480332360FEF7B2FF0646236879
:1016FC009803CAD4FEF7ACFF801B6428F7D90320EB
:10170C0002B0BDE8F0819BB9236823F480332360D9
:10171C00236823F480232360FEF79AFF0646236890
:10172C009903B2D5FEF794FF801B6428F7D9E6E73E
:10173C00B3F5A02F236803D143F480232360CFE7B4
:10174C0023F480332360236823F48023CBE7684C95
:10175C00636813F00C0F07D0636803F00C03082BBD
:10176C0010D16368DA030DD423689B0702D52B696B
:10177C00012BAFD123686A6923F0F80343EAC20353
:10178C00236085E72A695B4B6AB101221A60FEF778
:10179C005FFF064623689F07ECD4FEF759FF801BBA
:1017AC000228F7D9ABE71A60FEF752FF064623680A
:1017BC0098077FF56DAFFEF74BFF801B0228F6D91B
:1017CC009DE7AA694A4E4B4BE2B10122C3F8802433
:1017DC00FEF73EFF0446736A9B070DD54FF4FA5291
:1017EC00454B1B68B3FBF2F3019300BF019B5A1EE0
:1017FC000192002BF9D14FE7FEF72AFF001B0228BC
:10180C00E9D97CE7C3F88024FEF722FF0446736A0B
:10181C009F077FF541AFFEF71BFF001B0228F6D98F
:10182C006DE7334CE369D80024D40127E36943F016
:10183C008053E361E36903F080530093009B2F4EC8
:10184C003368D90518D5EB68012B26D1236A43F0F0
:10185C0001032362FEF7FCFE41F288380646236A38
:10186C009B073FD5002F3FF41BAFE36923F0805358
:10187C00E36115E70027E2E7336843F480733360D4
:10188C00FEF7E6FE80463368DA05DCD4FEF7E0FEB0
:10189C00A0EB08006428F6D931E7ABB9236A41F212
:1018AC00883823F001032362236A23F004032362A4
:1018BC00FEF7CEFE0646236A9807D3D5FEF7C8FE80
:1018CC00801B4045F7D91AE7052B236A03D143F057
:1018DC0004032362BAE723F001032362236A23F093
:1018EC000403B6E7FEF7B4FE801B4045B7D906E704
:1018FC000010024000004242140000200070004022
:10190C002A4C626802F00C02082A3ED00022022BFC
:10191C00274B1A662CD1FEF79BFE064623689901CD
:10192C0020D42B6AB3F5803F05D16268A96822F4F4
:10193C0000320A436260696A62680B4322F47412D3
:10194C001343012263601A4B1A66FEF781FE0546AB
:10195C0023689A013FF5A8AEFEF77AFE401B0228D9
:10196C00F6D9CCE6FEF774FE801B0228D6D9C6E663
:10197C00FEF76EFE054623689B017FF595AEFEF7DC
:10198C0067FE401B0228F6D9B9E6012B3FF4A2AE44
:10199C0060682B6A00F480329A427FF49BAE6B6ACB
:1019AC0000F47010C01A18BF0120A9E60010024004
:1019BC00000042420D4A536803F00C01082912D171
:1019CC000B48C3F38341DB03405C09D55368094AD8
:1019DC00C3F340435043084AD35CB0FBF3F0704769
:1019EC00064B584370470348704700BF0010024035
:1019FC00E240000800127A00E040000800093D00B7
:101A0C002DE9F0410D46044610B90120BDE8F081E6
:101A1C00444A136803F007038B4228D321688E07CE
:101A2C0030D4CA0743D43F4A136803F00703AB42D0
:101A3C0065D822683C4D12F0040F6CD1130706D503
:101A4C006B68226923F4605343EAC2036B60FFF7AF
:101A5C00B1FF6B68354AC3F30313D35CD840344BE6
:101A6C001860344B1868FEF7B1FD0020CEE7136800
:101A7C0023F007030B431360136803F007038B4237
:101A8C00C3D1CBE7284B11F0040F1EBF5A6842F4A8
:101A9C00E0625A60080742BF5A6842F460525A60CA
:101AAC005A68A06822F0F00202435A60B9E76268F3
:101ABC001D4E012A33681AD113F4003FA5D0736868
:101ACC0041F2883823F0030313437360FEF7C0FD23
:101ADC0007467368626803F00C03B3EB820FA2D065
:101AEC00FEF7B6FDC01B4045F3D903208EE7022A52
:101AFC0002D113F0007FE1E713F0020FDEE7136869
:101B0C0023F007032B431360136803F00703AB4266
:101B1C007FF47BAF8DE76B68E16823F4E0630B43E4
:101B2C006B608BE70020024000100240D0400008A0
:101B3C00140000201C00002003682DE9F341054629
:101B4C00D80721D5364CE369D9002BD40126E3699B
:101B5C0043F08053E361E36903F080530193019BED
:101B6C00304F3B68DA051FD5236A6A6813F440735B
:101B7C002ED1236A6A6823F44073134323621EB187
:101B8C00E36923F08053E3612A68910706D5244961
:101B9C00A8684B6823F4404303434B60D30636D408
:101BAC00002012E00026DBE73B6843F480733B60C7
:101BBC00FEF74EFD80463B68DB05D5D4FEF748FDAD
:101BCC00A0EB08006428F6D9032002B0BDE8F08130
:101BDC0002F440729A42CCD00120134A236AC2F814
:101BEC004004002023F44071DF07C2F84004216256
:101BFC00BFD5FEF72DFD41F288380746236A9807BA
:101C0C00B7D4FEF725FDC01B4045F7D9DCE7044AE5
:101C1C00E968536823F480030B435360C0E700BFAB
:101C2C0000100240007000400000424290F83D302D
:101C3C00012B18D102230D4A80F83D3003689342E2
:101C4C0006D0B3F1804F03D0A2F59432934204D165
:101C5C009A6802F00702062A03D01A6842F00102C1
:101C6C001A60002070470120704700BF002C014013
:101C7C00194A10B59042036805D0B0F1804F02D0DC
:101C8C00164CA04210D14C6823F07003904243EAEA
:101C9C00040305D0B0F1804F02D0104A904203D11A
:101CAC00CA6823F4407313434A6923F08003134337
:101CBC0003608B68C3620B688362074B984204BF56
:101CCC000B690363012343610369DB0742BF0369AB
:101CDC0023F00103036110BD002C014000040040FF
:101CEC0010B5044630B390F83D3003F0FF021BB939
:101CFC0080F83C20FEF7FCFB0223206884F83D3082
:101D0C00211DFFF7B5FF0123002084F8463084F82D
:101D1C003E3084F83F3084F8403084F8413084F809
:101D2C00423084F8433084F8443084F8453084F8E9
:101D3C003D3010BD0120FCE710B584680A4324F443
:101D4C007F4442EA03222243826010BD38B590F8EA
:101D5C003C300446012B4FF0020000F08E80012233
:101D6C0084F83D00206884F83C20836823F47F438A
:101D7C0023F0770383600B68602B4FD032D8402B55
:101D8C0064D016D8202B0DD00AD833F0100109D00E
:101D9C00012384F83D30002384F83C30104638BDD4
:101DAC00302BF5D1826822F07002134343F0070305
:101DBC0028E0502BECD14A68CD68016A036A21F007
:101DCC000A0123F00103036283690A4323F0F00341
:101DDC0043EA051383610262836823F0700343F0C6
:101DEC0057030FE0B3F5805F0DD0B3F5005F0CD057
:101DFC00702BCDD1CB68D1E90121FFF79DFF836812
:101E0C0043F0770383600022C2E7CB68D1E901215C
:101E1C00FFF792FF836843F48043F3E7036A026A97
:101E2C004D6822F01002C9680262826923F0A00397
:101E3C0022F4704243EA051342EA013282610362E2
:101E4C00836823F0700343F06703DBE74A68CD68CF
:101E5C00016A036A21F00A0123F00103036283691A
:101E6C000A4323F0F00343EA05138361026283689B
:101E7C0023F0700343F04703C4E702468EE70000EB
:101E8C0030B590F83C200346012A4FF002001ED0DA
:101E9C001A6883F83D0054680D6824F070042C43D4
:101EAC00906854600A4CA24206D0B2F1804F03D025
:101EBC00A4F59434A24204D1496820F08000014377
:101ECC0091600122002083F83D2083F83C0030BD56
:101EDC00002C014084B004A800E90E00002004B0DE
:101EEC00704703464FF43F420020A3F84400A3F888
:101EFC0040207047B0F8403023F47C535B045B0CFB
:101F0C00A0F8403000207047002070471FB50446F1
:101F1C0004A800E90E0000200123A4F84030A4F826
:101F2C004000A4F84400A4F8500004B010BD000018
:101F3C00F0B50A78CD7830F82240034624F4EC440E
:101F4C0024F070042404240C032D4BD8DFE805F096
:101F5C0002474543284644F4007448F28006344353
:101F6C0023F8224033F822409E4FA4B23C40144345
:101F7C00344323F822400C7B03EB021C002C40F072
:101F8C008B80CC884E78640864006EB3B3F8501024
:101F9C0089B26144A1F8004433F82210490609D5EE
:101FAC0033F8221089B2394041F4004141F0C001AC
:101FBC0023F8221033F822108B4C89B2012D01EA40
:101FCC00040101D081F0200141F4004141F0800175
:101FDC0023F822104AE044F4C0640020BDE744F426
:101FEC008064FAE70120B8E7B3F850500969ADB244
:101FFC006544A5F80844B3F850403E29A4B26444A3
:10200C00B4F80C54C5F30905A4F80C542FD94D0998
:10201C00CE06B4F80C1408BF05F1FF3589B241EABD
:10202C0085216FEA41416FEA514189B2A4F80C1441
:10203C0033F822104F040DD533F8221021F4E0416F
:10204C0021F070010904090C41F4404141F0800178
:10205C0023F82210654CC2B91A8892B2224082F43D
:10206C00405242F4004242F080021A80F0BD11B995
:10207C00B4F80C14D5E74D08C907B4F80C1448BFD4
:10208C00013589B241EA8521CFE733F8221089B2B4
:10209C00214081F4005197E7022D33F822405BD1A7
:1020AC00A4B23C4044F4014444F0800423F82240A0
:1020BC00B3F850400E89A4B2760864447600A4F8B4
:1020CC0000644E89B3F850407608A4B2644476009C
:1020DC00A4F808644978002948D133F822104E043A
:1020EC000DD533F8221021F4E04121F070010904E0
:1020FC00090C41F4404141F0800123F8221033F8DF
:10210C0022104D060DD533F8221021F4E04121F0B8
:10211C0070010904090C41F4004141F0C00123F89D
:10212C00221048F2800433F8221021F4804121F06F
:10213C0070010904090C81F44051214323F8221049
:10214C0033F8221021F4E04121F040010904090C7C
:10215C000C4323F8224089E724F4E24424F0700471
:10216C002404240C264323F82260A1E733F8221020
:10217C004C040DD533F8221021F4E04121F070010C
:10218C000904090C41F4404141F0800123F822106C
:10219C0033F8221049060DD533F8221021F4E04112
:1021AC0021F070010904090C41F4004141F0C00117
:1021BC0023F8221033F822100B4C89B22140012D48
:1021CC0018BF81F0200141F4004141F0800123F857
:1021DC00221033F8221021F4804121F070010904FF
:1021EC00090CF1E68F8FFFFFBF8FFFFF8FBFFFFF43
:1021FC004A780B78097BD9BB0AB330F823205106F7
:10220C000DD530F8232022F4E04222F070021204A3
:10221C00120C42F4004242F0C00220F8232030F8A5
:10222C00232022F4E04222F040021204120C42F469
:10223C00004242F0800220F823200020704730F842
:10224C00232052040DD530F8232022F4E04222F052
:10225C0070021204120C42F4404242F0800220F848
:10226C00232030F8232022F4804222F07002DCE795
:10227C00002A4AD130F8232051040DD530F8232000
:10228C0022F4E04222F070021204120C42F440429A
:10229C0042F0800220F8232030F8232052060DD57E
:1022AC0030F8232022F4E04222F070021204120CC7
:1022BC0042F4004242F0C00220F8232048F2800190
:1022CC0030F8232022F4E04222F070021204120CA7
:1022DC0042F4004242F0C00220F8232030F82320C0
:1022EC0022F4804222F070021204120C0A4320F8ED
:1022FC00232030F8232022F4E04222F04002120482
:10230C00120C114320F8231097E730F823205104C6
:10231C000DD530F8232022F4E04222F07002120492
:10232C00120C42F4404242F0800220F8232030F894
:10233C00232052060DD530F8232022F4E04222F05F
:10234C0070021204120C42F4004242F0C00220F857
:10235C00232048F2800130F8232022F4E04222F0BE
:10236C0070021204120C42F4404242F0800220F837
:10237C00232030F8232022F4E04222F04002120401
:10238C00120C0A4320F8232030F8232022F4804238
:10239C0022F07002B3E74B780A788BB130F8223018
:1023AC0023F4E04323F040031B041B0C83F01003C5
:1023BC0043F4004343F0800320F8223000207047A0
:1023CC0030F8223023F4804323F070031B041B0CE1
:1023DC0083F48053ECE70B7B3BBB4B780A7833B32D
:1023EC0030F822305B060DD530F8223023F4E04370
:1023FC0023F070031B041B0C43F4004343F0C00395
:10240C0020F82230CB78012B0FD030F8223023F477
:10241C00E04323F040031B041B0C83F0200343F424
:10242C00004343F0800320F822300020704730F83E
:10243C0022305B040DD530F8223023F4E04323F036
:10244C0070031B041B0C43F4404343F0800320F83F
:10245C00223030F8223023F4804323F070031B0425
:10246C001B0C83F44053DAE711B98023A0F84C30ED
:10247C00002070470020704700207047B0F84400DF
:10248C0080B270470020704700EB4200013300F52A
:10249C0080605B0800EB8303834200D1704731F806
:1024AC00022B20F8042BF7E72DE9F0474B78044674
:1024BC00012B0D460A7B40F01881D1F810908F69E2
:1024CC0049694F4528BF4F460ABBBFB2EA883B4615
:1024DC00FFF7DAFFB4F85000297880B204F2044216
:1024EC00090102448F522A7834F8223023F4E04355
:1024FC0023F040031B041B0C83F03003002043F437
:10250C00004343F0800324F82230BDE8F087EB78D9
:10251C0095F800E0022B2E6A4FEA0E1C40F0D0809A
:10252C00B14530F82E2080F0B48022F4E04222F045
:10253C0070021204120C42F4014242F0800220F8A4
:10254C002E2030F82E80B0F850E0F61B18F0400822
:10255C002E6201EB070ABBB21FFA8EFE4ED000F2C0
:10256C000C42724422F80C306A89FFF78DFFB1459A
:10257C0036BFF31B00233E466A782B62C5F814A0C5
:10258C00B3B27ABBB4F85020287892B204F204416A
:10259C0000011144425A3E2EC2F30902425214D990
:1025AC00425A7709F60608BF07F1FF3792B242EAA2
:1025BC0087226FEA42426FEA524292B242522A8911
:1025CC0051462046FFF760FF8DE70EB9425AF0E7FF
:1025DC00F207425A4FEA560748BF013792B242EA15
:1025EC008722EAE7012AEAD1B4F85000297880B2B0
:1025FC0004F20442090102448B52E0E700F2044267
:10260C00724422F80C302A89FFF73EFFB14536BFE1
:10261C00F31B43463E466A782B62C5F814A0B3B24E
:10262C005ABBB4F85020287892B204F20C41000145
:10263C001144425A3E2EC2F30902425210D9425A58
:10264C007709F60608BF07F1FF3792B242EA8722F4
:10265C006FEA42426FEA524292B242526A89AFE743
:10266C000EB9425AF4E7F207425A4FEA560748BFEE
:10267C00013792B242EA8722EEE7012AEED1B4F892
:10268C005000297880B204F20C42090102448B52AA
:10269C00E4E722F4E24222F070021204120C42F43B
:1026AC00004242F0800220F82E20B0F8503000F2A8
:1026BC0004429BB21A44B3B222F80C302A8981E747
:1026CC00F61B30F82E202E62B0F85060BBB25706C5
:1026DC00B6B206D500F20C42324422F80C306A89AC
:1026EC0070E700F204423244E6E7002A3BD18B69E2
:1026FC000969B0F850008B4284BF5A1A0B462978EE
:10270C00AA6180B204F20C4209010244885A3E2BA1
:10271C00C0F3090088521AD95809DE068B5A08BF33
:10272C0000F1FF309BB243EA80236FEA43436FEA28
:10273C0053439BB28B522A7834F8223023F48043D3
:10274C0023F070031B041B0C83F44053D6E60BB927
:10275C008B5AEAE75808DB078B5A48BF01309BB20B
:10276C0043EA8023E5E7CA78022A70D1002B38D1DE
:10277C00B0F850200B7892B200F204401B011044C8
:10278C00C25AC2F30902C2520A693E2A46D9C15A38
:10279C005609D70608BF06F1FF3689B241EA8621F1
:1027AC006FEA41416FEA514189B2C152B4F850000D
:1027BC0004F20C4180B20144C85A3E2AC0F309000D
:1027CC00C85238D95009D706CA5A08BF00F1FF3091
:1027DC0092B242EA80226FEA42426FEA524292B2CD
:1027EC00CA52EB69002BA6D044F240032A7834F885
:1027FC00221003EA01008B4301D000289BD134F84E
:10280C00223023F4E04323F070031B041B0C43F42D
:10281C00004343F0C00324F822308CE70AB9C15AB4
:10282C00BEE7D107C15A4FEA520648BF013689B2FA
:10283C0041EA8621B8E70AB9CA5ACCE75008D6074C
:10284C00CA5A48BF013092B242EA8022C7E7012A35
:10285C005DD18A6909698A4294BF0020501AA86127
:10286C0088BF0A46002B7FF466AFB4F850102B7863
:10287C0089B204F204401B010844C15A3E2AC1F338
:10288C000901C1522BD9D106C15A4FEA521608BFC1
:10289C0006F1FF3689B241EA86216FEA41416FEABF
:1028AC00514189B2C152B4F8500004F20C4180B2CB
:1028BC000144C85A3E2AC0F30900C8521BD950091A
:1028CC00D606CA5A08BF00F1FF3092B242EA802203
:1028DC006FEA42426FEA524292B2CA522BE70AB9ED
:1028EC00C15ADAE7C15A5608D70748BF013689B230
:1028FC0041EA8621D5E70AB9CA5AE9E75008D20756
:10290C00CA5A48BF013092B242EA8022E4E7012061
:10291C00FBE500EB4200F0B500F580605D080C466D
:10292C0007462E46023436B9DB0744BF30F8253053
:10293C0001F81530F0BD37F8042B013E92B204F8C3
:10294C00022C120A04F8012CECE7D0F8BC3210B5BA
:10295C006BB1D0F8B84294F80002FF2807D09B68FE
:10296C00214694F801229847FF2384F80032002076
:10297C0010BD000043230380004870476400002012
:10298C004323038000487047A800002043230380A2
:10299C0000487047200000200A230380004870473D
:1029AC002401002038B50446D0F8B85200F09AFE45
:1029BC00D4F8B832C5F80C024BB1D4F8BC32D5F807
:1029CC000402DB6805F503719847002038BD02202E
:1029DC00FCE7F8B5D0F8B862CEB1142202FB0102C4
:1029EC00D369D0F8C05273B1282707FB0154246A6D
:1029FC00B3FBF4F504FB15332BB9D3611A4600F085
:102A0C005FFE0020F8BD0023C6F81432F9E702205F
:102A1C00F8E70023F7B50F788DF80530ADF80630E0
:102A2C0017F0600304460D46D0F8B86222D0202B74
:102A3C003AD1CA884B78BAB139060BD5D0F8BC124A
:102A4C0018468F683146B84731462046EA8800F070
:102A5C0029FC06E0314686F8003286F8012200F0A7
:102A6C0036FC002003B0F0BDD0F8BC0284681846D8
:102A7C00A047F6E74B780A2B0AD00B2B10D09BB94A
:102A8C0090F89C32032B0FD102220DF10601DEE7E8
:102A9C0090F89C32032B07D101220DF10501D6E7EA
:102AAC0090F89C32032BDCD02046294600F0D3FB57
:102ABC000220D7E738B504460025812100F0CBFD74
:102ACC0001212046E56200F0C6FD82212046C4F8B3
:102ADC006C5100F0C0FDD4F8B83225644BB1D4F879
:102AEC00BC325B689847D4F8B80200F003FEC4F817
:102AFC00B852002038BD70B5037C0446A3BB4FF41C
:102B0C0000738121022200F09AFD01214FF4007321
:102B1C00E16201250222204600F091FD08230322E8
:102B2C0082212046C4F86C5100F089FD4FF40770E7
:102B3C00256400F0DBFD0646C4F8B802F8B1D4F801
:102B4C00BC321B6898470023C6F81432C6F81832FA
:102B5C00237C93B94FF4007329462046D6F80422FF
:102B6C0000F0B7FD002070BD40238121022200F04F
:102B7C0066FD01214023E162CBE74023ECE72846C8
:102B8C00F1E719B1C0F8BC12002070470220704761
:102B9C00D0F8B8320020C3F80812C3F810227047DE
:102BAC00D0F8B8320020C3F804127047D0F8B8221D
:102BBC0010B582B1D2F81442012374B9C2F81432A0
:102BCC00D2F8103281210363D2F808229BB200F0B4
:102BDC0077FD204610BD0220FCE71846FAE7D0F836
:102BEC00B82208B562B1037CD2F8042233B94FF491
:102BFC000073012100F06DFD002008BD4023F8E7B3
:102C0C000220FAE708B580B1D0F8B43213B1002332
:102C1C00C0F8B43209B1C0F8B0120123027080F8C8
:102C2C009C3200F0C3FC002008BD0220FCE719B167
:102C3C00C0F8B412002070470220704708B500F0AD
:102C4C00F5FC002008BD08B5D0F8B43233B11B68D0
:102C5C009847003818BF0120400008BD0220FCE74F
:102C6C0008B5D0F8B4325B689847002008BD38B579
:102C7C0000F52A750446284600F0E2FA012394F880
:102C8C00A812C4F89432B4F8AE32C4F8983201F0F9
:102C9C001F03012B08D0022B0BD07BB929462046F1
:102CAC0000F0FAF8002038BD2946204600F01CFA46
:102CBC00F8E72946204600F03BFAF3E7204601F0FE
:102CCC00800100F0D1FCEDE770B50446164639BB27
:102CDC00D0F89422032A1CD1D0E9585295420BD932
:102CEC00AD1AAA423146C0F860518CBFAAB292B25A
:102CFC0000F0FAFA002070BDD0F8B4321B6923B191
:102D0C0090F89C22032A00D19847204600F0F4FA50
:102D1C00F0E7052AEED1C4F8941200F0A5FCE9E71F
:102D2C00D0F8B4329B692BB190F89C22032A01D1C4
:102D3C009847DFE70220DEE7F8B5044613460F4656
:102D4C00002949D1D0F89422022A3AD1D0E9085668
:102D5C00B54211D9AD1B19460562AAB200F0AFFA03
:102D6C003B461A461946204600F0B3FC94F8A032B4
:102D7C00012B2DD00020F8BDC369B3FBF6F506FB83
:102D8C00153565B99E420AD8D0F89822934206D2DE
:102D9C002A4600F094FA2B46C4F89852E1E7D4F88E
:102DAC00B432DB682BB194F89C22032A01D1204663
:102DBC0098478021204600F057FC204600F0A7FAE7
:102DCC00D4E732F00403D1D1802100F04DFCCDE7E3
:102DDC00002384F8A032CDE7D0F8B4325B692BB174
:102DEC0090F89C22032A01D19847C3E70220C2E73E
:102DFC00002270B50446012540261146402300F000
:102E0C001EFC3346802100222046C4F85851C4F8D9
:102E1C00646100F014FC0021D4F8B832A56166623C
:102E2C0084F89C52C4F894126160C4F8A41223B1C3
:102E3C00D4F8B43220465B689847002070BD01740A
:102E4C000020704790F89C3280F89D32042380F863
:102E5C009C320020704790F89C32042B04BF90F8F1
:102E6C009D3280F89C320020704708B590F89C2267
:102E7C00032A04D1D0F8B432DB6903B1984700209F
:102E8C0008BD10B50446802100F0EEFB2046BDE8DD
:102E9C001040002100F0E8BB37B50B78044603F076
:102EAC006003202B0D4612D0402B10D0002B51D19B
:102EBC004B78092B4ED8DFE813F0EE0009014D00DA
:102ECC0002014D00870013004D00D600A300D4F87A
:102EDC00B432294620469B689847002003B030BD89
:102EEC000023ADF806304B881A0A013A062A31D86D
:102EFC00DFE802F00416233030485200D0F8B0322C
:102F0C001B68207C0DF106019847BDF80620EB8864
:102F1C00002A55D0002B4AD1204600F0EDF9DCE711
:102F2C00027CD0F8B43232B99B6A0DF10600984796
:102F3C0002234370E9E7DB6AF7E7DBB2052B09D81C
:102F4C00DFE803F0030C1014181CD0F8B0325B68E7
:102F5C00002BD6D12046FFF794FFBEE7D0F8B03255
:102F6C009B68F5E7D0F8B032DB68F1E7D0F8B03207
:102F7C001B69EDE7D0F8B0325B69E9E7D0F8B03205
:102F8C009B69E5E7037C002BE4D1D0F8B4320DF15A
:102F9C0006005B6B9847B8E7037C002BDAD1D0F8BE
:102FAC00B4320DF106001B6B98470723C1E79A4218
:102FBC0028BF1A4601462046ADF8062000F072F9EB
:102FCC00EB88002B89D1A7E78B88002BC2D1CB884B
:102FDC00002BBFD14D887F2DBCD890F89C32032B91
:102FEC00B8D0E9B280F89E1200F061FB204600F0E8
:102FFC0083F91DB1022384F89C326EE70123FAE7B2
:10300C008978384D01292970A4D890F89C32022B6C
:10301C0008D0032B15D0FFF734FF20462978FFF793
:10302C001FFE5AE700293FF477AF012103234160CB
:10303C0080F89C322046FFF706FE02287FF46CAF26
:10304C0088E731B90223416080F89C32FFF708FE13
:10305C0062E7416801293FF45FAFC9B2FFF700FE98
:10306C0029786160E6E7CA88012A7FF473AF90F88B
:10307C009C32022B0AD8002B3FF46CAF0146002384
:10308C0041F8083F204600F00DF926E7032B7FF4AA
:10309C0061AF011DF6E790F89C32013B022B3FF625
:1030AC0059AFCA88022A7FF455AFD0F8A432014632
:1030BC00002B0CBF0123032341F80C3FE2E74B88A4
:1030CC00012B7FF40AAFC4F8A43225E790F89C32A8
:1030DC00013B022B3FF63EAF4B88012B7FF4FDAE3C
:1030EC000023F0E7E003002038B50B78044603F02A
:1030FC0060025B060D4601D5402A15D194F89C322E
:10310C00013B022B10D82B79012B0DD8D4F8B432FB
:10311C0029469B6820469847EB881BB910B9204676
:10312C0000F0EAF8002038BD2046FFF7AAFEF9E7C8
:10313C0038B50A78044602F06002202A0B468D88C6
:10314C0026D0402A24D08ABB5A78E9B2012A3DD035
:10315C00032A25D052BB90F89C32022B4DD0032B66
:10316C0024D1142201F00F0315F0800F02FB03038E
:10317C0053D09B69D3B1142501F07F0303FB055594
:10318C0005444B0655D10023022229462B6040E012
:10319C00D4F8B4221946204692689047002038BDD6
:1031AC0090F89C22022A1FD0032A03D02046FFF756
:1031BC0068FEF3E75A882AB94A0603D0DB880BB9B4
:1031CC0000F052FA204600F097F8E7E790F89C22BE
:1031DC00022A09D0032AE9D15B88002BDED14D06E7
:1031EC00F0D000F04AFAEDE74B06DFD000F03CFAE5
:1031FC008021204600F038FAD0E74906D6D10023CA
:10320C002A064FF002024CBF00F1140100F5AA711E
:10321C000B60204600F046F8C0E7D3F85831002B7D
:10322C00C4D0142301F07F0503FB050505F5AA7531
:10323C00A7E7204600F02AFA0028A4D00123A3E730
:10324C000B7803704B7843704B8843808B8883805A
:10325C00CB88C380704710B50446802100F004FA77
:10326C002046BDE81040002100F0FEB970B50D46B7
:10327C001646044670B1FCF763FFC3B201335B0022
:10328C0033802B70032300206B700223013C14F855
:10329C00011F01B970BD5A1CE954D2B20233DBB222
:1032AC00A854F4E71346022210B5C0E90733C0F85E
:1032BC0094220A46002100F003FA002010BD08B544
:1032CC0013460A46002100F0FBF9002008BD134606
:1032DC00032210B5C0E95733C0F894220A460021E6
:1032EC0000F0F7F9002010BD08B513460A4600217E
:1032FC0000F0EFF9002008BD08B50423C0F89432A3
:10330C0000231A46194600F0DBF9002008BD08B569
:10331C000523C0F8943200231A46194600F0D9F957
:10332C00002008BD08B500220E490F48FFF76AFCC3
:10333C0008B1FDF7B9F80D490B48FFF778FC08B157
:10334C00FDF7B2F80A490848FFF71BFC08B1FDF776
:10335C00ABF80548FFF772FC18B1BDE80840FDF763
:10336C00A3B808BD74010020E4030020EC00002089
:10337C0030010020002070470020704710B5054C2C
:10338C0001462046FFF70CFC2046FFF728FC0020E6
:10339C0010BD00BFE403002010B5064C00222046EF
:1033AC000549FFF7F5FB20460449FFF7F9FB002020
:1033BC0010BD00BFE4030020A8060020A80A0020CE
:1033CC0010B5094C0A46D4F8B832D3F8143243B9C4
:1033DC0001462046FFF7DCFB2046BDE81040FFF716
:1033EC00E5BB012010BD00BFE403002012230148FF
:1033FC000B80704760010020042301480B8070474C
:10340C005C010020002370B51E464D1CDCB2A242AC
:10341C0000D870BD040FB0F1204F34BF30343734B6
:10342C0001F81340000105F813600133EEE70000CA
:10343C001A2310B50B800A4BD3F8E807D3F8F02702
:10344C0080180AD0D3F8EC4706490822FFF7DAFFB8
:10345C00042220461031FFF7D5FF034810BD00BFF2
:10346C0000F0FF1F420100204001002010B5044C69
:10347C000A4604482146FFF7F9FE204610BD00BF5E
:10348C00A80E0020F240000810B5044C0A4604486F
:10349C002146FFF7EBFE204610BD00BFA80E002012
:1034AC000541000810B5044C0A4604482146FFF7B4
:1034BC00DDFE204610BD00BFA80E00201B410008F9
:1034CC0010B5044C0A4604482146FFF7CFFE2046AF
:1034DC0010BD00BFA80E00202641000818B102281C
:1034EC000CBF01200220704707B50E4B02689A42B0
:1034FC0015D103F5DA33DA69142042F40002DA61EB
:10350C000022DB69114603F400030193019BFDF7D4
:10351C00C9F8142003B05DF804EBFDF7F3B803B061
:10352C005DF804FB005C004000F52671D0F8D40275
:10353C00FFF79DBB282303FB0103D0F8D402D3F87B
:10354C006421FFF7C1BB282303FB0103D0F8D4028D
:10355C005A6AFFF7F1BBD0F8D402FFF786BC10B55E
:10356C0083790446022B01D0FCF79EFFD4F8D402D9
:10357C000121FFF764FCD4F8D402BDE81040FFF73A
:10358C0037BC000010B50446D0F8D402FFF75AFC43
:10359C00A37A23B1024A136943F00603136110BDE9
:1035AC0000ED00E0D0F8D402FFF755BC10B51D4B70
:1035BC0004461D4803600823037102238371002312
:1035CC00C0F8D442C4F8C00243810373FDF7B2F9CA
:1035DC0008B1FCF769FF002218231146D4F8C00289
:1035EC00FEF733F8582300228021D4F8C002FEF7EE
:1035FC002CF8C02300228121D4F8C002FEF725F854
:10360C004FF4887300220121D4F8C002FEF71DF894
:10361C004FF4807300228221D4F8C002FEF715F813
:10362C00002010BD005C0040C812002008B5D0F886
:10363C00C002FDF7E2F9BDE80840FFF74FBF10B537
:10364C001446D0F8C0021A462346FDF707FFBDE822
:10365C001040FFF743BF08B5D0F8C002FDF72EFFAE
:10366C00BDE80840FFF73ABF08B5D0F8C002FDF737
:10367C0084FFBDE80840FFF731BF08B5D0F8C002A1
:10368C00FDF7B1FFBDE80840FFF728BF282211F075
:10369C00800FD0F8C0321BBF01F07F0102FB013359
:1036AC0002FB0133987C08BF93F85201704708B5B0
:1036BC00D0F8C002FDF7BAF9BDE80840FFF70EBF1D
:1036CC0008B5D0F8C002FDF740FFBDE80840FFF791
:1036DC0005BF08B5D0F8C002FDF718FFBDE80840DB
:1036EC00FFF7FCBED0F8C002FDF727BF00487047BB
:1036FC00A8100020704770470EB46FF0004100B561
:10370C009CB01DAB029006900791049108480949A2
:10371C0053F8042B0591006802A9019300F092F96B
:10372C000022029B1A701CB05DF804EB03B07047CA
:10373C00900100200802FFFF03460244934200D18F
:10374C00704703F8011BF9E7014B1868704700BF7D
:10375C009001002070B500260C4D0D4C641BA4107C
:10376C00A64209D100F078FC00260A4D0A4C641BD5
:10377C00A410A64205D170BD55F8043B98470136FC
:10378C00EEE755F8043B98470136F2E77041000824
:10379C007041000870410008744100087047704780
:1037AC0038B50546002940D051F8043C0C1F002BBD
:1037BC00B8BFE41800F0DEF81C4A136833B9636034
:1037CC0014602846BDE8384000F0DAB8A34208D9A6
:1037DC00206821188B4201BF19685B6809182160A9
:1037EC00EDE71A465B680BB1A342FAD91168501881
:1037FC00A0420BD120680144501883421160E0D1E3
:10380C0018685B68084410605360DAE702D90C232F
:10381C002B60D6E7206821188B4201BF19685B68C2
:10382C000918216063605460CBE738BDE4160020B2
:10383C0070B50F4E0C463168054611B900F0AAFB65
:10384C0030602146284600F0A5FB431C03D14FF005
:10385C00FF34204670BDC41C24F00304A042F8D0F1
:10386C00211A284600F096FB0130F2D1EFE700BF99
:10387C00E01600202DE9F843CD1C25F00305083592
:10388C000C2D38BF0C25002D064601DBA94204D9AE
:10389C000C2333600020BDE8F883DFF8D48000F0FF
:1038AC0069F8D8F800301C4644BB29463046FFF76F
:1038BC00BFFF431C044658D1D8F800402746002FC0
:1038CC0043D1002C4BD023683946304604EB030916
:1038DC0000F060FB814542D1216830466D1A2946C3
:1038EC00FFF7A6FF01303AD023682B442360D8F8A9
:1038FC0000305A6862BBC8F800700FE02268521B97
:10390C0020D40B2A17D96119A342256018BF59601E
:10391C00636808BFC8F8001062514B60304600F075
:10392C002FF804F10B00231D20F00700C21A1CBF56
:10393C001B1AA350AFE76268A3420CBFC8F8002063
:10394C005A60EBE723466468AEE73C467F68B6E70F
:10395C001A465B68A342FBD100235360DEE70C23BD
:10396C003046336000F00CF894E70560D6E700BFF2
:10397C00E41600200148FFF711BF00BFDC16002041
:10398C000148FFF70CBF00BFDC1600202DE9F04703
:10399C001F468E688246BE420C4690460B682DD858
:1039AC00B1F90C2012F4906F26D06569096905EB0A
:1039BC004505A3EB010905EBD5757B1C4B446D103C
:1039CC009D4238BF1D46530527D52946FFF752FFA8
:1039DC00064660B34A46216900F0FAFAA38923F43B
:1039EC00906343F08003A38126614E4426603E46DB
:1039FC006561A5EB0905A560BE4200D93E4632467D
:103A0C004146206800F0ACFA0020A3689B1BA36021
:103A1C00236833442360BDE8F0872A4600F0E6FAB9
:103A2C0006460028E0D150462169FFF7B9FE0C2369
:103A3C00CAF80030A3894FF0FF3043F04003A38154
:103A4C00E9E700002DE9F04F98468B8907461B06E5
:103A5C000D4614469DB010D50B6973B94021FFF784
:103A6C0009FF2860286130B90C233B604FF0FF3010
:103A7C001DB0BDE8F08F40236B6100230993202318
:103A8C008DF8293030234FF00109CDF80C80DFF888
:103A9C0098818DF82A3023469A4613F8012B0AB1E7
:103AAC00252AF9D1BAEB040B0BD05B4622462946EA
:103ABC003846FFF76BFF013000F0A780099A5A4493
:103ACC0009929AF80030002B00F09F8000234FF0F1
:103ADC00FF32CDE905230AF1010A049307938DF80F
:103AEC0053301A935446052214F8011B4E4800F02B
:103AFC0061FA049AD8B9D00644BF20238DF853300C
:103B0C00110744BF2B238DF853309AF800302A2B21
:103B1C0015D0544600204FF00A0C079A214611F894
:103B2C00013B303B092B4BD9B0B1079214E0A0EB11
:103B3C00080309FA03F31343A2460493D2E7039B49
:103B4C00191D1B680391002BBBBF5B4242F00202A4
:103B5C0007930793B8BF049223782E2B0AD163786E
:103B6C002A2B32D1039B02341A1D1B68039243EAA1
:103B7C00E3730593DFF8B4A003225046217800F0DC
:103B8C0019FA38B14022049BA0EB0A00824013437F
:103B9C000134049314F8011B062225488DF82810D3
:103BAC0000F008FA002836D0224B1BBB039B0733CE
:103BBC0023F0070308330393099B334409936AE703
:103BCC000C4601200CFB0232A8E700234FF00A0C34
:103BDC00194601340593204610F8012B303A092A76
:103BEC0003D9002BC6D00591C4E7044601230CFB76
:103BFC000121F0E703AB00932A4638460E4B04A98B
:103C0C00AFF30080421C0646D6D1AB895B063FF56C
:103C1C002DAF09982CE703AB00932A463846064B88
:103C2C0004A900F07DF8EDE7344100083A410008A2
:103C3C003E41000800000000993900082DE9F047CA
:103C4C00164698468A680B6907469342B8BF1346D6
:103C5C00336091F843200C46DDF820900AB1013313
:103C6C0033602368990642BF33680233336025689A
:103C7C0015F0060506D104F1190AE36832689B1A9F
:103C8C00AB422BDC94F843302268003B18BF012375
:103C9C00920630D44146384604F14302C8470130FD
:103CAC0023D02368226903F00603042B14BF0025DC
:103CBC0033684FF0000608BFE56804F11A0408BF2A
:103CCC00ED1A54F8123C08BF25EAE5759342C4BFBF
:103CDC009B1AED18B5421AD1002008E00123524678
:103CEC0041463846C847013003D14FF0FF30BDE89C
:103CFC00F0870135C1E73020E11881F843005A1CE8
:103D0C0094F845102244023382F84310C2E7012391
:103D1C00224641463846C8470130E6D00136D9E73D
:103D2C002DE9FF470F7E9146782F80460C469A4628
:103D3C000C9E01F1430207D8622F0AD8002F00F025
:103D4C00D380582F00F0BA8004F1420684F84270F8
:103D5C003AE0A7F16303152BF6D801A151F823F033
:103D6C00C53D0008D93D0008553D0008553D0008EB
:103D7C00553D0008553D0008D93D0008553D00084B
:103D8C00553D0008553D0008553D0008DB3E000838
:103D9C00033E0008953E0008553D0008553D0008BF
:103DAC00FD3E0008553D0008033E0008553D000847
:103DBC00553D00089D3E000833681A1D1B68326093
:103DCC0004F1420684F8423001239EE033682068F7
:103DDC00191D3160060601D51D6803E04506FBD5AB
:103DEC00B3F90050002D03DA2D236D4284F84330D3
:103DFC000A23594811E021683368080653F8045B1C
:103E0C0002D4490648BFADB26F2F336014BF0A23EA
:103E1C0008235148002184F843106668002EA8BF7F
:103E2C002168A660A4BF21F0040121600DB9002E09
:103E3C004BD01646B5FBF3F103FB1157C75D06F8E3
:103E4C00017D2F46BB420D46F4D9082B0BD12368BC
:103E5C00DF0708D5236961689942DEBF302306F875
:103E6C00013C06F1FF36921B22614B46214640462F
:103E7C00CDF800A003AAFFF7E1FE01304AD14FF0C4
:103E8C00FF3004B0BDE8F087236843F020032360C3
:103E9C007827324884F84570236831681F0651F83A
:103EAC00045B02D45F0648BFADB23160D90744BF92
:103EBC0043F0200323601DB11023ABE72648E9E74C
:103ECC00236823F020032360F6E71646BDE733682A
:103EDC002568181D616930602E061B6801D51960B4
:103EEC0002E06806FBD51980002316462361BCE767
:103EFC00336800211A1D32601E686268304600F07B
:103F0C0059F808B1801B606063682361002384F852
:103F1C004330AAE73246494640462369D047013030
:103F2C00ADD023689B0713D4E068039B9842B8BFBD
:103F3C001846A6E70123324649464046D047013091
:103F4C009DD00135E36803995B1AAB42F2DCEBE7D9
:103F5C00002504F11906F5E7454100085641000813
:103F6C00884210B501EB020402D98442234607D8DB
:103F7C00431EA14208D011F8012B03F8012FF8E7DA
:103F8C00014602448A4200D110BD13F8014D02F8DB
:103F9C00014DF7E738B50023054D044608462B6064
:103FAC00FCF7CCFA431C02D12B6803B1236038BD5B
:103FBC00D8160020034610B5C9B2024493421846E5
:103FCC0001D1002003E0047801338C42F6D110BDFE
:103FDC000A44914200F1FF3300D1704710B511F83B
:103FEC00014B914203F8014FF9D110BD2DE9F0417D
:103FFC00804615460C4621B91146BDE8F041FFF745
:10400C0039BC2AB9FFF7CCFB00242046BDE8F0816F
:10401C0000F01AF88542064602D8B5EB500FF4D8DA
:10402C0029464046FFF726FC07460028ECD0B5424F
:10403C002A46214628BF3246FFF7CAFF2146404692
:10404C00FFF7AEFB3C46E0E751F8043C181F002B91
:10405C00BCBF0B58C0187047F8B500BFF8BC08BC03
:10406C009E467047F8B500BFF8BC08BC9E4670472A
:10407C0030782530386C580D0A002564203A2025FC
:10408C0064202D2D3E2025640D0A002D2D2D2D2D67
:10409C002D2D2D2D2D2D2D2D2D2D2D2D2D2D2D2D44
:1040AC002D2D2D2D2D2D2D2D2D2D2D2D2D2D2D2D34
:1040BC002D2D2D2D2D2D2D2D2D2D2D2D2D2D2D2D24
:1040CC002D0D0A0000000000000000000102030496
:1040DC0006070809010202030405060708090A0B72
:1040EC000C0D0E0F101053544D6963726F656C6597
:1040FC006374726F6E6963730053544D3332205680
:10410C0069727475616C20436F6D506F72740043EB
:10411C00444320436F6E6669670043444320496EF5
:10412C007465726661636500232D302B2000686C0A
:10413C004C006566674546470030313233343536BE
:10414C0037383941424344454600303132333435F7
:0C415C0036373839616263646566000024
:08416800E4BFFF7F010000002D
:044170003101000811
:044174000D01000831
:104178004FB07F000EF17F000FF07F0076897F003F
:1041880053AC7F0000127A0001000000100000000C
:1041980009074300020104C03209040000010202B9
:1041A8000100052400100105240100010424020275
:1041B8000524060001070582030800100904010010
:1041C800020A0000000705010240000007058102FD
:1041D8004000000009024300020100C03209040047
:1041E800000102020100052400100105240100015C
:1041F80004240202052406000107058203080010B2
:1042080009040100020A000000070501024000003D
:10421800070581024000000009024300020100C0B6
:104228003209040000010202010005240010010502
:104238002401000104240202052406000107058266
:104248000308001009040100020A00000007050124
:10425800020002000705810200020000032B00088B
:10426800C12A00081F2A000800000000572900087A
:10427800DF290008B1290008000000000000000044
:10428800000000008D2900088129000899290008EC
:10429800A52900080A0600020000004001000000ED
:1042A800A5330008813300088533000889330008E6
:1042B8001A030000000000000000000000000000D9
:1042C80000000000000000000000000004030904D2
:1042D800120100020202004083044057000201025A
:1042E80003010000F9330008053400087934000898
:1042F800953400083D340008B1340008CD34000876
:104308009401002000000000A015002008160020DD
:1043180070160020000000000000000000000000EF
:104328000000000000000000000000000000000085
:104338000000000000000000000000000000000075
:104348000000000000000000000000000000000065
:040000050800058D5D
:00000001FF
